:020000040000FA
:06000000A2EF00F0120067
:020006000000F8
:08000800060EF66E000EF76E05
:10001000000EF86E00010900F550656F0900F550FB
:10002000666F03E1656701D03DD00900F550606F50
:100030000900F550616F0900F550626F0900090071
:10004000F550E96E0900F550EA6E09000900090053
:10005000F550636F0900F550646F09000900F6CF91
:1000600067F0F7CF68F0F8CF69F060C0F6FF61C0C5
:10007000F7FF62C0F8FF0001635302E1645307E039
:100080000900F550EE6E6307F8E26407F9D767C020
:10009000F6FF68C0F7FF69C0F8FF00016507000EB2
:0600A000665BBFD71200F1
:0A00A6009490829082808290FDD732
:1000B0001200D9CFE6FFE1CFD9FF040EE126DE6AB8
:1000C000DD6ADECF00F0DDCF01F0FD0EDBCF02F008
:1000D000FE0EDBCF03F00250005C0350015805E236
:1000E000DF2A010E01E3DB2AECD7020EDB6A030EE6
:1000F000DB6ADECF00F0DDCF01F0E80E005C030E1E
:10010000015806E2020EDB2A030E01E3DB2AF1D7D7
:10011000040EE15C02E2E16AE552E16EE552E7CFEE
:04012000D9FF1200F1
:0C012400000EF36E00EE00F0060E01D895
:100130001200EA6002D0EE6AFCD7F350E9601200C8
:04014000EE6AFCD790
:0C01440015EE00F025EE00F0F86A059CB6
:1001500004EC00F0B0EC00F053EC00F0FBD7120020
:0201600012008B
:020000040030CA
:0100010002FC
:010002001FDE
:010003001EDE
:01000500807A
:010006008178
:00000001FF
