:020000040000FA
:06000000C7EF02F0120040
:020006000000F8
:08000800D9CFE6FFE1CFD9FFDB
:10001000040EE126DE6ADD6ADECF10F0DDCF11F0DE
:10002000FD0EDBCF12F0FE0EDBCF13F01250105C92
:100030001350115805E2DF2A010E01E3DB2AECD749
:10004000020EDB6A030EDB6A020EDBCF10F0030E3A
:10005000DBCF11F0A50E105C000E115806E2020E67
:10006000DB2A030E01E3DB2AEFD7040EE15C02E298
:10007000E16AE552E16EE552E7CFD9FF1200010EC9
:10008000E66E2BD8E552020EE66E27D8E552060E34
:10009000E66E23D8E5520C0EE66E1FD8E552380EF8
:1000A000E66E1BD8E552F40EE66E010EE66EACDF8E
:1000B000E552E552D9EF00F0818AF40EE66E010EAA
:1000C000E66EA2DFE552E552819AF40EE66E010E6D
:1000D000E66E9ADFE552E5521200D9CFE6FFE1CF96
:1000E000D9FF8198FE0EDB50836EF40EE66E010E92
:1000F000E66E8ADFE552E552DFDFE552E7CFD9FF52
:100100001200D9CFE6FFE1CFD9FF8188FE0EDB5088
:10011000836EF40EE66E010EE66E76DFE552E55272
:10012000CBDFE552E7CFD9FF1200D9CFE6FFE1CF11
:10013000D9FF100EF36EFE0EDBCFF4FFF350F45C2C
:1001400007E2FE0EDB50800FE66EC7DFE5520CD0F3
:10015000FE0EDB50EC0FE76EFE0EE7CFDBFFDB5051
:10016000C00FE66EBADFE552E552E7CFD9FF1200C5
:10017000D9CFE6FFE1CFD9FF8188FD0EDBCFF6FFB7
:10018000FE0EDBCFF7FF0800F5500FE0FD0EDBCFD2
:10019000F6FFDB2AFE0EDBCFF7FF01E3DB2A0800C8
:1001A000F550E66EAEDFE552E8D7E552E7CFD9FF6E
:1001B00012008198010EE66E90DFE552580EE66E51
:1001C000020EE66E21DFE552E5521200D9CFE6FFBE
:1001D000E1CFD9FF0A0EE126DE6ADD6AD950020FAF
:1001E000E96EDACFEAFFEE6AEE6AEE6AEE6AEE6A6E
:1001F000EE6AEE6AEE6A100E106E270E116EFC0E9D
:10020000DBCF06F0FD0EDBCF07F010C00BF011C006
:100210000CF08BEC02F0080E06C0DBFF090E07C0E5
:10022000DBFFFC0EDBCF10F0FD0EDBCF11F0100E6C
:100230000B6E270E0C6E10C006F011C007F08BEC91
:1002400002F002C010F003C011F0060E10C0DBFF78
:10025000070E11C0DBFF060EDBCF10F0070EDBCF61
:1002600011F0E80E0B6E030E0C6E10C006F011C0FC
:1002700007F08BEC02F002C010F003C011F0040E86
:1002800010C0DBFF050E11C0DBFFE80E106E030E81
:10029000116E060EDBCF06F0070EDBCF07F010C0A5
:1002A0000BF011C00CF08BEC02F0060E06C0DBFF69
:1002B000070E07C0DBFF040EDBCF10F0050EDBCF0F
:1002C00011F0640E0B6E0C6A10C006F011C007F03E
:1002D0008BEC02F002C010F003C011F0020E10C04F
:1002E000DBFF030E11C0DBFF640E106E116A040EFB
:1002F000DBCF06F0050EDBCF07F010C00BF011C00E
:100300000CF08BEC02F0040E06C0DBFF050E07C0FC
:10031000DBFF020EDBCF10F0030EDBCF11F00A0E75
:100320000B6E0C6A10C006F011C007F08BEC02F0E7
:1003300002C010F003C011F010C0DEFF11C0DDFFDD
:100340000A0E106E116A020EDBCF06F0030EDBCF31
:1003500007F010C00BF011C00CF08BEC02F0020E95
:1003600006C0DBFF030E07C0DBFFFE0EDB500508F7
:1003700005E2050EF36EFE0EF3CFDBFFFE0EDB5043
:10038000000819E2D9CF12F0DACF13F0FE0EDB0429
:10039000020D1250F324E96E1350F420EA6EEECFF2
:1003A00010F0EFCF11F0300E1024E66EAADEE55209
:1003B000FE0EDB06E3D70A0EE15C02E2E16AE552DB
:1003C000E16EE552E7CFD9FF120051D858DEE80EB2
:1003D000E66E030EE66E18DEE552E5528250020B21
:1003E0000FE18250010B0CE1E4DEE66A9EDEE5528D
:1003F0005A0EE66E050EE66EBBDEE552E55235D0CE
:100400008250020B0FE18250010B0CE0E66A8DDE98
:10041000E552CFDE550EE66E050EE66EA9DEE5521C
:10042000E55223D08250020B0FE08250010B0CE109
:10043000E66A7BDEE552BDDE550EE66E050EE66E23
:1004400097DEE552E55211D08250020B0EE0825049
:10045000010B0BE0E66A69DEE552ABDE420EE66EAA
:10046000050EE66E85DEE552E552B8D71200956AB4
:08047000936A030E946E120062
:08047800060EF66E000EF76E91
:10048000000EF86E00010900F550656F0900F55087
:10049000666F03E1656701D03DD00900F550606FDC
:1004A0000900F550616F0900F550626F09000900FD
:1004B000F550E96E0900F550EA6E090009000900DF
:1004C000F550636F0900F550646F09000900F6CF1D
:1004D00067F0F7CF68F0F8CF69F060C0F6FF61C051
:1004E000F7FF62C0F8FF0001635302E1645307E0C5
:1004F0000900F550EE6E6307F8E26407F9D767C0AC
:10050000F6FF68C0F7FF69C0F8FF00016507000E3D
:06051000665BBFD712007C
:0A051600036A026A100EE76ED89027
:1005200006360736023603360B50025C0C50035871
:1005300005E30B50025E0C50035A062AE72EF0D753
:020540001200A7
:0E0542004D4F544F52204D4F564520464F52BC
:1005500057415244004E4F4E45004D4F544F52208C
:0D0560004D4F56452052455645525345001B
:02056E00000E7D
:10057000F36E00EE00F0060E01D81200EA6002D021
:0E058000EE6AFCD7F350E9601200EE6AFCD779
:02058E0015EE68
:1005900000F025EE00F0F86A0F9C3CEC02F0D5EC80
:0A05A00002F0E5EC01F0FBD71200B9
:0205AA0012003D
:020000040030CA
:0100010002FC
:0100020000FD
:010003001EDE
:01000500807A
:010006008079
:00000001FF
