:020000040000FA
:06000000C8EF00F0120041
:020006000000F8
:08000800D9CFE6FFE1CFD9FFDB
:10001000030EE126DE6ADD6ADECF00F0DDCF01F0FF
:10002000FD0EDBCF02F0FE0EDBCF03F00250005CD2
:100030000350015805E2DF2A010E01E3DB2AECD769
:10004000020EDB6ADB50006E016AD890015004E6B4
:10005000A50E005C000E015803E2020EDB2AF2D767
:10006000030EE15C02E2E16AE552E16EE552E7CFA0
:10007000D9FF1200D9CFE6FFE1CFD9FF020EE1266A
:1000800093909392948094828250010B06E1825067
:10009000020B03E08180819211D08250010B06E0B7
:1000A0008250020B03E18190818208D08250010BC3
:1000B00005E08250020B02E081808182E5D7020ECA
:1000C000E15C02E2E16AE552E16EE552E7CFD9FF79
:0200D00012001C
:0E00D200060EF66E000EF76E000EF86E0001C0
:1000E0000900F550656F0900F550666F03E165671B
:1000F00001D03DD00900F550606F0900F550616FE7
:100100000900F550626F09000900F550E96E090019
:10011000F550EA6E090009000900F550636F090007
:10012000F550646F09000900F6CF67F0F7CF68F06B
:10013000F8CF69F060C0F6FF61C0F7FF62C0F8FF5A
:100140000001635302E1645307E00900F550EE6ECD
:100150006307F8E26407F9D767C0F6FF68C0F7FFE6
:1001600069C0F8FF00016507000E665BBFD712008B
:10017000000EF36E00EE00F0060E01D81200EA60E9
:1001800002D0EE6AFCD7F350E9601200EE6AFCD7A9
:1001900015EE00F025EE00F0F86A059C69EC00F021
:0C01A000D6EC00F03AEC00F0FBD71200A7
:0201AC0012003F
:020000040030CA
:0100010002FC
:010002001FDE
:010003001EDE
:01000500807A
:010006008178
:00000001FF
