:020000040000FA
:0600000085EF03F0120081
:020006000000F8
:08000800D9CFE6FFE1CFD9FFDB
:10001000040EE126DE6ADD6ADECF10F0DDCF11F0DE
:10002000FD0EDBCF12F0FE0EDBCF13F01250105C92
:100030001350115805E2DF2A010E01E3DB2AECD749
:10004000020EDB6A030EDB6A020EDBCF10F0030E3A
:10005000DBCF11F0A50E105C000E115806E2020E67
:10006000DB2A030E01E3DB2AEFD7040EE15C02E298
:10007000E16AE552E16EE552E7CFD9FF1200010EC9
:10008000E66E2BD8E552020EE66E27D8E552060E34
:10009000E66E23D8E5520C0EE66E1FD8E552380EF8
:1000A000E66E1BD8E552F40EE66E010EE66EACDF8E
:1000B000E552E552D9EF00F0818AF40EE66E010EAA
:1000C000E66EA2DFE552E552819AF40EE66E010E6D
:1000D000E66E9ADFE552E5521200D9CFE6FFE1CF96
:1000E000D9FF8198FE0EDB50836EF40EE66E010E92
:1000F000E66E8ADFE552E552DFDFE552E7CFD9FF52
:100100001200D9CFE6FFE1CFD9FF8188FE0EDB5088
:10011000836EF40EE66E010EE66E76DFE552E55272
:10012000CBDFE552E7CFD9FF1200D9CFE6FFE1CF11
:10013000D9FF100EF36EFE0EDBCFF4FFF350F45C2C
:1001400007E2FE0EDB50800FE66EC7DFE5520CD0F3
:10015000FE0EDB50EC0FE76EFE0EE7CFDBFFDB5051
:10016000C00FE66EBADFE552E552E7CFD9FF1200C5
:10017000D9CFE6FFE1CFD9FF8188FD0EDBCFF6FFB7
:10018000FE0EDBCFF7FF0800F5500FE0FD0EDBCFD2
:10019000F6FFDB2AFE0EDBCFF7FF01E3DB2A0800C8
:1001A000F550E66EAEDFE552E8D7E552E7CFD9FF6E
:1001B00012008198010EE66E90DFE552580EE66E51
:1001C000020EE66E21DFE552E5521200D9CFE6FFBE
:1001D000E1CFD9FF0A0EE126DE6ADD6AD950020FAF
:1001E000E96EDACFEAFFEE6AEE6AEE6AEE6AEE6A6E
:1001F000EE6AEE6AEE6A100E106E270E116EFC0E9D
:10020000DBCF06F0FD0EDBCF07F010C00BF011C006
:100210000CF05FEC03F0080E06C0DBFF090E07C010
:10022000DBFFFC0EDBCF10F0FD0EDBCF11F0100E6C
:100230000B6E270E0C6E10C006F011C007F05FECBD
:1002400003F002C010F003C011F0060E10C0DBFF77
:10025000070E11C0DBFF060EDBCF10F0070EDBCF61
:1002600011F0E80E0B6E030E0C6E10C006F011C0FC
:1002700007F05FEC03F002C010F003C011F0040EB1
:1002800010C0DBFF050E11C0DBFFE80E106E030E81
:10029000116E060EDBCF06F0070EDBCF07F010C0A5
:1002A0000BF011C00CF05FEC03F0060E06C0DBFF94
:1002B000070E07C0DBFF040EDBCF10F0050EDBCF0F
:1002C00011F0640E0B6E0C6A10C006F011C007F03E
:1002D0005FEC03F002C010F003C011F0020E10C07A
:1002E000DBFF030E11C0DBFF640E106E116A040EFB
:1002F000DBCF06F0050EDBCF07F010C00BF011C00E
:100300000CF05FEC03F0040E06C0DBFF050E07C027
:10031000DBFF020EDBCF10F0030EDBCF11F00A0E75
:100320000B6E0C6A10C006F011C007F05FEC03F012
:1003300002C010F003C011F010C0DEFF11C0DDFFDD
:100340000A0E106E116A020EDBCF06F0030EDBCF31
:1003500007F010C00BF011C00CF05FEC03F0020EC0
:1003600006C0DBFF030E07C0DBFFFE0EDB500508F7
:1003700005E2050EF36EFE0EF3CFDBFFFE0EDB5043
:10038000000819E2D9CF12F0DACF13F0FE0EDB0429
:10039000020D1250F324E96E1350F420EA6EEECFF2
:1003A00010F0EFCF11F0300E1024E66EAADEE55209
:1003B000FE0EDB06E3D70A0EE15C02E2E16AE552DB
:1003C000E16EE552E7CFD9FF12000B0EC16E810E30
:1003D000C26E8A0EC06E1200C2801200C29012005D
:1003E000D9CFE6FFE1CFD9FF020EE126DE6ADD6A52
:1003F000C280010EE66EE66A33D8E552E552C2824B
:10040000C2A202D0FDD7FCD7C450106E10C011F0AC
:10041000106A10C0DEFF11C0DDFFC350E76E000E92
:10042000DFCF10F0010EDBCF11F0E7501026000EE9
:10043000112210C0DEFF11C0DDFFDECF10F0DDCFD6
:1004400011F010C0F3FF11C0F4FF020EE15C03E2F3
:1004500000D0E16AE552E16EE552E7CFD9FF120024
:10046000D9CFE6FFE1CFD9FF040EE126DE6ADD6ACF
:10047000DECF10F0DDCF11F0FD0EDBCF12F0FE0E5F
:10048000DBCF13F01250105C135011581AE2020E19
:10049000DB6A030EDB6A020EDBCF10F0030EDBCF4C
:1004A00011F0A50E105C000E115806E2020EDB2AB8
:1004B000030E01E3DB2AEFD7DF2A010E01E3DB2A7B
:1004C000D7D7040EE15C02E2E16AE552E16EE55243
:1004D000E7CFD9FF1200D9CFE6FFE1CFD9FF090E50
:1004E000E12676D8CCDD71DFE66A1FDEE552260E06
:1004F000E66E070EE66E3CDEE552E552DE6ADE6A27
:10050000DE6ADD6ADD52DD5267DF080EDB6A640EEB
:10051000F36E080EDBCFF4FFF350F45C21E260DFF2
:10052000F3CF10F0F4CF11F0126A136AD9CFE9FFBC
:10053000DACFEAFFEE501026EE501122EE501222D2
:10054000EE50132210C0DFFF010E11C0DBFF020EC0
:1005500012C0DBFF030E13C0DBFF080EDB2AD7D768
:10056000D9CFE9FFDACFEAFFEECF04F0EECF05F006
:10057000EECF06F0EFCF07F0640E096E0A6A0B6A41
:100580000C6A3BEC03F004C0DEFF05C0DEFF06C0D2
:10059000DEFF07C0DDFFDD52DD52060EE66EC5DD73
:1005A000E552000EDFCFE6FF010EDBCFE6FF040EC3
:1005B000E66E0CDEE552E552E552A0D7090EE15C8D
:1005C00002E2E16AE552E16EE552E7CFD9FF12009F
:0805D0009268936A956A12001B
:0805D800060EF66E000EF76E30
:1005E000000EF86E00010900F550656F0900F55026
:1005F000666F03E1656701D03DD00900F550606F7B
:100600000900F550616F0900F550626F090009009B
:10061000F550E96E0900F550EA6E0900090009007D
:10062000F550636F0900F550646F09000900F6CFBB
:1006300067F0F7CF68F0F8CF69F060C0F6FF61C0EF
:10064000F7FF62C0F8FF0001635302E1645307E063
:100650000900F550EE6E6307F8E26407F9D767C04A
:10066000F6FF68C0F7FF69C0F8FF00016507000EDC
:06067000665BBFD712001B
:0A067600036A026A016A006A200E9E
:10068000E76ED89004360536063607360036013652
:10069000023603360950005C0A5001580B500258CC
:1006A0000C50035809E30950005E0A50015A0B50E0
:0E06B000025A0C50035A042AE72EE4D7120017
:0206BE00036ACD
:1006C000026A100EE76ED8900636073602360336F9
:1006D0000B50025C0C50035805E30B50025E0C50AB
:0A06E000035A062AE72EF0D7120095
:0606EA00000EF36E00EEAD
:1006F00000F0060E01D81200EA6002D0EE6AFCD7C4
:0A070000F350E9601200EE6AFCD726
:06070A0015EE00F025EEE3
:1007100000F0F86A0F9CECEC02F09CEC03F06BEC40
:0607200002F0FBD71200FD
:0A0726004144433A20202020202007
:070730002020202020200002
:020738001200AD
:020000040030CA
:0100010002FC
:0100020001FC
:010003001EDE
:01000500807A
:010006008079
:00000001FF
