:020000040000FA
:0600000010EF01F01200F8
:020006000000F8
:0600080010EF00F01200F1
:02000E009380DD
:10001000946A816A826AF292F288F28EFFD71200A5
:10002000DACFE4FFE2CFDAFFE9CFE4FFEACFE4FF83
:10003000F6CFE4FFF7CFE4FFF5CFE4FFF3CFE4FF23
:10004000F4CFE4FFFACFE4FF00EE04F0020EE80480
:1000500003E3EECFE4FFFBD700EE00F0040EE8046C
:1000600003E3EECFE4FFFBD7E652D9CFE6FFE1CFC3
:10007000D9FF020EE126F2A210D08280100EE66EA9
:10008000270EE66E38D8E552E5528290100EE66EE5
:10009000270EE66E30D8E552E552F292020EE15C90
:1000A00002E2E16AE552E16EE552E7CFD9FFE5529F
:1000B00000EE03F0040EE80403E3E5CFEDFFFBD709
:1000C00000EE05F0020EE80403E3E5CFEDFFFBD7F9
:1000D000E5CFFAFFE5CFF4FFE5CFF3FFE5CFF5FF7E
:1000E000E5CFF7FFE5CFF6FFE5CFEAFFE5CFE9FF84
:1000F000E5CFDAFF1100D9CFE6FFE1CFD9FF030E3C
:10010000E126DE6ADD6ADECF00F0DDCF01F0FD0E14
:10011000DBCF02F0FE0EDBCF03F00250005C035099
:10012000015805E2DF2A010E01E3DB2AECD7020EBB
:10013000DB6ADB50006E016AD890015004E6A50E20
:10014000005C000E015803E2020EDB2AF2D7030E18
:10015000E15C02E2E16AE552E16EE552E7CFD9FFE8
:0201600012008B
:0E016200060EF66E000EF76E000EF86E00012F
:100170000900F550656F0900F550666F03E165678A
:1001800001D03DD00900F550606F0900F550616F56
:100190000900F550626F09000900F550E96E090089
:1001A000F550EA6E090009000900F550636F090077
:1001B000F550646F09000900F6CF67F0F7CF68F0DB
:1001C000F8CF69F060C0F6FF61C0F7FF62C0F8FFCA
:1001D0000001635302E1645307E00900F550EE6E3D
:1001E0006307F8E26407F9D767C0F6FF68C0F7FF56
:1001F00069C0F8FF00016507000E665BBFD71200FB
:10020000000EF36E00EE00F0060E01D81200EA6058
:1002100002D0EE6AFCD7F350E9601200EE6AFCD718
:1002200015EE00F025EE00F0F86A059CB1EC00F048
:0C0230001EEC01F007EC00F0FBD7120000
:02023C001200AE
:020000040030CA
:0100010002FC
:0100020019E4
:010003001EDE
:01000500807A
:010006008178
:00000001FF
