:020000040000FA
:0600000045EF05F01200BF
:020006000000F8
:08000800D9CFE6FFE1CFD9FFDB
:10001000040EE126DE6ADD6ADECF14F0DDCF15F0D6
:10002000FD0EDBCF16F0FE0EDBCF17F01650145C82
:100030001750155805E2DF2A010E01E3DB2AECD741
:10004000020EDB6A030EDB6A020EDBCF14F0030E36
:10005000DBCF15F0A50E145C000E155806E2020E5B
:10006000DB2A030E01E3DB2AEFD7040EE15C02E298
:10007000E16AE552E16EE552E7CFD9FF1200010EC9
:10008000E66E2BD8E552020EE66E27D8E552060E34
:10009000E66E23D8E5520C0EE66E1FD8E552380EF8
:1000A000E66E1BD8E552F40EE66E010EE66EACDF8E
:1000B000E552E552D9EF00F0818AF40EE66E010EAA
:1000C000E66EA2DFE552E552819AF40EE66E010E6D
:1000D000E66E9ADFE552E5521200D9CFE6FFE1CF96
:1000E000D9FF8198FE0EDB50836EF40EE66E010E92
:1000F000E66E8ADFE552E552DFDFE552E7CFD9FF52
:100100001200D9CFE6FFE1CFD9FF8188FE0EDB5088
:10011000836EF40EE66E010EE66E76DFE552E55272
:10012000CBDFE552E7CFD9FF1200D9CFE6FFE1CF11
:10013000D9FF100EF36EFE0EDBCFF4FFF350F45C2C
:1001400007E2FE0EDB50800FE66EC7DFE5520CD0F3
:10015000FE0EDB50EC0FE76EFE0EE7CFDBFFDB5051
:10016000C00FE66EBADFE552E552E7CFD9FF1200C5
:10017000D9CFE6FFE1CFD9FF8188FD0EDBCFF6FFB7
:10018000FE0EDBCFF7FF0800F5500FE0FD0EDBCFD2
:10019000F6FFDB2AFE0EDBCFF7FF01E3DB2A0800C8
:1001A000F550E66EAEDFE552E8D7E552E7CFD9FF6E
:1001B00012008198010EE66E90DFE552580EE66E51
:1001C000020EE66E21DFE552E5521200D9CFE6FFBE
:1001D000E1CFD9FF0A0EE126DE6ADD6AD950020FAF
:1001E000E96EDACFEAFFEE6AEE6AEE6AEE6AEE6A6E
:1001F000EE6AEE6AEE6A100E146E270E156EFC0E95
:10020000DBCF06F0FD0EDBCF07F014C00BF015C0FE
:100210000CF01FEC05F0080E06C0DBFF090E07C04E
:10022000DBFFFC0EDBCF14F0FD0EDBCF15F0100E64
:100230000B6E270E0C6E14C006F015C007F01FECF5
:1002400005F002C014F003C015F0060E14C0DBFF69
:10025000070E15C0DBFF060EDBCF14F0070EDBCF59
:1002600015F0E80E0B6E030E0C6E14C006F015C0F0
:1002700007F01FEC05F002C014F003C015F0040EE7
:1002800014C0DBFF050E15C0DBFFE80E146E030E75
:10029000156E060EDBCF06F0070EDBCF07F014C09D
:1002A0000BF015C00CF01FEC05F0060E06C0DBFFCE
:1002B000070E07C0DBFF040EDBCF14F0050EDBCF0B
:1002C00015F0640E0B6E0C6A14C006F015C007F032
:1002D0001FEC05F002C014F003C015F0020E14C0AC
:1002E000DBFF030E15C0DBFF640E146E156A040EEF
:1002F000DBCF06F0050EDBCF07F014C00BF015C006
:100300000CF01FEC05F0040E06C0DBFF050E07C065
:10031000DBFF020EDBCF14F0030EDBCF15F00A0E6D
:100320000B6E0C6A14C006F015C007F01FEC05F048
:1003300002C014F003C015F014C0DEFF15C0DDFFCD
:100340000A0E146E156A020EDBCF06F0030EDBCF29
:1003500007F014C00BF015C00CF01FEC05F0020EF6
:1003600006C0DBFF030E07C0DBFFFE0EDB500508F7
:1003700005E2050EF36EFE0EF3CFDBFFFE0EDB5043
:10038000000819E2D9CF16F0DACF17F0FE0EDB0421
:10039000020D1650F324E96E1750F420EA6EEECFEA
:1003A00014F0EFCF15F0300E1424E66EAADEE552FD
:1003B000FE0EDB06E3D70A0EE15C02E2E16AE552DB
:1003C000E16EE552E7CFD9FF12000B0EC16E810E30
:1003D000C26E8A0EC06E1200C2801200C29012005D
:1003E000D9CFE6FFE1CFD9FF020EE126DE6ADD6A52
:1003F000C280010EE66EE66A33D8E552E552C2824B
:10040000C2A202D0FDD7FCD7C450146E14C015F0A0
:10041000146A14C0DEFF15C0DDFFC350E76E000E86
:10042000DFCF14F0010EDBCF15F0E7501426000EDD
:10043000152214C0DEFF15C0DDFFDECF14F0DDCFC6
:1004400015F014C0F3FF15C0F4FF020EE15C03E2E7
:1004500000D0E16AE552E16EE552E7CFD9FF120024
:10046000D9CFE6FFE1CFD9FF040EE126DE6ADD6ACF
:10047000DECF14F0DDCF15F0FD0EDBCF16F0FE0E53
:10048000DBCF17F01650145C175015581AE2020E05
:10049000DB6A030EDB6A020EDBCF14F0030EDBCF48
:1004A00015F0A50E145C000E155806E2020EDB2AAC
:1004B000030E01E3DB2AEFD7DF2A010E01E3DB2A7B
:1004C000D7D7040EE15C02E2E16AE552E16EE55243
:1004D000E7CFD9FF1200D9CFE6FFE1CFD9FF090E50
:1004E000E126F9D8CCDD71DFE66A1FDEE552AE0EFB
:1004F000E66E0A0EE66E3CDEE552E552DE6ADE6A24
:10050000DE6ADD6ADD52DD5267DF080EDB6A640EEB
:10051000F36E080EDBCFF4FFF350F45C21E260DFF2
:10052000F3CF14F0F4CF15F0166A176AD9CFE9FFAC
:10053000DACFEAFFEE501426EE501522EE501622C6
:10054000EE50172214C0DFFF010E15C0DBFF020EB4
:1005500016C0DBFF030E17C0DBFF080EDB2AD7D760
:10056000D9CFE9FFDACFEAFFEECF04F0EECF05F006
:10057000EECF06F0EFCF07F0640E096E0A6A0B6A41
:100580000C6AFBEC04F004C0DEFF05C0DEFF06C011
:10059000DEFF07C0DDFFDD52DD52D9CFE9FFDACF44
:1005A000EAFFEECF1CF0EECF1DF0EECF1EF0EFCF46
:1005B0001FF01CC004F01DC005F01EC006F01FC0D7
:1005C00007F06FEC03F005C018F006C019F007C083
:1005D0001AF008C01BF0680E0A6EE80E0B6E9F0E34
:1005E0000C6E3B0E0D6E18C005F019C006F01AC057
:1005F00007F01BC008F08AEC03F005C014F006C039
:1006000015F007C016F008C017F00A6A0B6AC80E8A
:100610000C6E420E0D6E14C005F015C006F016C02B
:1006200007F017C008F08AEC03F0F7EC03F0040EB3
:1006300006C0DBFF050E07C0DBFF146E156A040E53
:10064000DBCF06F0050EDBCF07F014C00BF015C0B2
:100650000CF01FEC05F0060E06C0DBFF070E07C00E
:10066000DBFF060EE66E61DDE552000EDFCFE6FF32
:10067000010EDBCFE6FF040EE66EA8DDE552E55283
:10068000E552140EE66E51DDE552A60EE66E0A0E38
:10069000E66E6EDDE552E552060EDBCFE6FF070E95
:1006A000DBCFE6FF020EE66E91DDE552E552E55244
:1006B000DF0EE66E26DDE552430EE66E22DDE552E4
:1006C0001DD7090EE15C02E2E16AE552E16EE552F6
:0E06D000E7CFD9FF12009268936A956A120074
:0206DE000F9E6D
:1006E0000CD00F9E07AE09D0046C051E061E071E17
:1006F000E86A0522062207220F8E07C001F006C015
:1007000000F005C013F004C012F09E0E026E036AE2
:1007100042EF04F00F6A7EEC04F096EC04F00FB6A2
:1007200026EF04F00FA205D00FB826EF04F02DEF4E
:1007300004F00FAA05D00FB026EF04F02DEF04F05F
:100740000FB002D00FA802D039EF04F0036A0D50A9
:100750000824026EE86A03227E0E025EE86A035AEB
:10076000126A136A006A016A0C500702F4CF01F0A2
:10077000F3CF00F00B500702F3501326F450002281
:10078000000E01220C500602F3501326F4500022F2
:10079000000E01220A500702F3501226F4501322D1
:1007A000000E002201220B500602F3501226F450D4
:1007B0001322000E002201220C500502F3501226D3
:1007C000F4501322000E002201220A500602F450B7
:1007D0001226000E1322002201220B500502F450B3
:1007E0001226000E13220022012242EF04F00F6AAB
:1007F0007EEC04F00FB601EF04F00FA20ED00FB4A0
:1008000005D07F0E076EFF0E066E1FD0800E076E9E
:10081000066A1BD0076A066A18D00FB0FBD78F0E86
:100820000860EDD77E0E0864F5D78E0E085C05E0F3
:10083000D89007320632082AF8D70FA406D0066CE3
:10084000071EE86A072207AEE5D712007F0E086E82
:10085000FF0E076E066E056E12007F0E0FBEFF0EB6
:10086000086E02D07F0E086E800E076E066A056A5B
:10087000F3D70FAE04D0800E086E076AF7D7086A68
:10088000076AF4D70150001013101210F8E003BEED
:10089000F0D701BE0CD002500310EBE0D890123616
:1008A0001336003601360206D8A00306F2D70350ED
:1008B000D4E10228D2E012AE11D07F0E121402E170
:1008C00013A00CD0132AE86A0022012207E3D88083
:1008D000013200321332022A0228BFE00250C9E07E
:1008E00013C005F000C006F00134076E0230086E38
:1008F0000732089E0FBE088E2CEF04F0073608362C
:1009000002E30F840F7E06E10F80086A076A066A19
:10091000056A1200082803E0D88007321200D89038
:10092000073202E10F8212000F8612000C360D36DC
:1009300002E30F8C0F7E06E10F880D6A0C6A0B6ACA
:100940000A6A12000D2803E0D8800C321200D890F9
:080950000C32EAE10F8A1200EB
:08095800060EF66E000EF76EAC
:10096000000EF86E00010900F550656F0900F550A2
:10097000666F03E1656701D03DD00900F550606FF7
:100980000900F550616F0900F550626F0900090018
:10099000F550E96E0900F550EA6E090009000900FA
:1009A000F550636F0900F550646F09000900F6CF38
:1009B00067F0F7CF68F0F8CF69F060C0F6FF61C06C
:1009C000F7FF62C0F8FF0001635302E1645307E0E0
:1009D0000900F550EE6E6307F8E26407F9D767C0C7
:1009E000F6FF68C0F7FF69C0F8FF00016507000E59
:0609F000665BBFD7120098
:0A09F600036A026A016A006A200E1B
:100A0000E76ED890043605360636073600360136CE
:100A1000023603360950005C0A5001580B50025848
:100A20000C50035809E30950005E0A50015A0B505C
:0E0A3000025A0C50035A042AE72EE4D7120093
:020A3E00036A49
:100A4000026A100EE76ED890063607360236033675
:100A50000B50025C0C50035805E30B50025E0C5027
:0A0A6000035A062AE72EF0D7120011
:060A6A00000EF36E00EE29
:100A700000F0060E01D81200EA6002D0EE6AFCD740
:0A0A8000F350E9601200EE6AFCD7A3
:060A8A0015EE00F025EE60
:100A900000F0F86A0F9CACEC04F060EC05F06BEC35
:060AA00002F0FBD712007A
:0A0AA60054454D503A200900414428
:0F0AB000433A202020202020202020202020003A
:020AC000120022
:020000040030CA
:0100010002FC
:0100020001FC
:010003001EDE
:01000500807A
:010006008079
:00000001FF
